:0909FA00010B00010900010C2DA4
:10097D007F107E277D407C42D3ED9400EC64809403
:10098D00804007ED1D70F11C80EEEF1F70011EEF12
:03099D004E70E5B4
:0109A0002234
:0F09DC00E4F50BF509E50BC454F04509F5A0222D
:1009A100E5097013E50B7008750B097509098009D4
:1009B100750909150B80021509E50BC454F04509A9
:0309C100F5A0227C
:10095800E50964097013E50BB40907E4F50BF5091B
:100968008009E4F509050B80020509E50BC454F07C
:050978004509F5A02275
:10080000750D2DC297209005120958801B20910567
:10081000750D03800E209205750D02800620930849
:10082000750D01AF0D1209EBD297C29620900512FB
:1008300009A1801B209105750D06800E209205757B
:100840000D058006209308750D04AF0D1209EBD23B
:1008500096C295209003750D43209108750D09AF40
:100860000D1209EB209208750D08AF0D1209EB204F
:100870009308750D07AF0D1209EBD295C294209025
:1008800005750D44801B209105750D238013209262
:100890000AE4F50DAF0D1209EB800620930312094F
:1008A000DCD29412097DE50DB42D0975082D750C67
:1008B0002D7F0022E50DB5080D650C6009850D0A38
:0B08C000850D0C7F0122850D087F00D4
:0108CB00220A
:0F09EB0085090B8F09E50BC454F04509F5A022CF
:1009C40075900FE4F5A0D297D296D295D2941208DE
:0809D40000EF24FF920080F601
:030000000208CC27
:0C08CC00787FE4F6D8FD75812002091346
:1008D8000209C4E493A3F8E493A34003F68001F269
:1008E80008DFF48029E493A3F85407240CC8C33321
:1008F800C4540F4420C8834004F456800146F6DFF0
:10090800E4800B01020408102040809009FAE47E7C
:10091800019360BCA3FF543F30E509541FFEE493E4
:10092800A360010ECF54C025E060A840B8E493A3AB
:10093800FAE493A3F8E493A3C8C582C8CAC583CAD6
:10094800F0A3C8C582C8CAC583CADFE9DEE780BE8E
:010A030000F2
:00000001FF
