:10096200020F2580010900011400010E000111008F
:03000300020800F0
:10080000C0E0C0D075D000C000E590540FF508B42A
:100810000C08750E017511008055E509700EE59004
:10082000540F751200F5137509018043E509640141
:10083000703DE590540F750A00F50BE513C4F854AC
:100840000FC868F513E512C454F048F512E50B25FE
:1008500013F513E50A3512F5120511E511B4030F6E
:10086000E514B4010A750E00D2A0C2A17514018569
:10087000120C85130DE514B4010685120F851310B3
:10088000E508640C6005E508B40B03750900D000A9
:05089000D0D0D0E032E1
:10092100D288D2A8D2AF7590FFD2A0C2A1E50DB5F1
:1009310010FBE50CB50FF6C2A0D2A1E508B40B0D72
:10094100D2A0C2A1E4F50974ABF50CF50DE50EB426
:1009510001DBC2A0D2A175140174ABF50CF50D80B9
:01096100ECA9
:030000000208955E
:0C089500787FE4F6D8FD7581140208DCC1
:1008A100020921E493A3F8E493A34003F68001F243
:1008B10008DFF48029E493A3F85407240CC8C33358
:1008C100C4540F4420C8834004F456800146F6DF27
:1008D100E4800B0102040810204080900962E47E4C
:1008E100019360BCA3FF543F30E509541FFEE4931C
:1008F100A360010ECF54C025E060A840B8E493A3E3
:10090100FAE493A3F8E493A3C8C582C8CAC583CA0D
:10091100F0A3C8C582C8CAC583CADFE9DEE780BEC5
:010972000084
:00000001FF
