:0309830001080068
:030003000209727D
:10097200C0E0E590540F750900F50A750801D0E052
:010982003242
:10080000D288D2A8D2AF7590FFE508B401FBE50A03
:100810004509700575A00380F0E50A64014509707B
:100820000575A09F80E3E50A64024509700575A07F
:100830002580D6E50A64034509700575A00D80C9B9
:10084000E50A64044509700575A09980BCE50A6451
:10085000054509700575A04980AFE50A640645099C
:10086000700575A04180A2E50A6407450970057509
:10087000A01D8095E50A64084509700575A00180F2
:1008800088E50A64094509700675A009020809E5AA
:100890000A640A4509700675A011020809E50A6490
:1008A0000B4509700675A0C1020809E50A640C45EC
:1008B00009700675A063020809E50A640D45097010
:1008C0000675A085020809E50A640E4509700675DB
:1008D000A061020809E50A640F45096003020809DE
:0608E00075A07102080979
:030000000208E60D
:0C08E600787FE4F6D8FD75810A02092D28
:1008F200020800E493A3F8E493A34003F68001F214
:1009020008DFF48029E493A3F85407240CC8C33306
:10091200C4540F4420C8834004F456800146F6DFD5
:10092200E4800B0102040810204080900983E47ED9
:10093200019360BCA3FF543F30E509541FFEE493CA
:10094200A360010ECF54C025E060A840B8E493A391
:10095200FAE493A3F8E493A3C8C582C8CAC583CABC
:10096200F0A3C8C582C8CAC583CADFE9DEE780BE74
:010986000070
:00000001FF
